{
  "_format": "hh-sol-artifact-1",
  "contractName": "MyAccountBalance",
  "sourceName": "contracts/MyAccountBalance.sol",
  "abi": [
    {
      "inputs": [],
      "stateMutability": "nonpayable",
      "type": "constructor"
    },
    {
      "inputs": [
        {
          "internalType": "uint256",
          "name": "amount",
          "type": "uint256"
        }
      ],
      "name": "Deposit",
      "outputs": [
        {
          "internalType": "uint256",
          "name": "",
          "type": "uint256"
        }
      ],
      "stateMutability": "nonpayable",
      "type": "function"
    },
    {
      "inputs": [
        {
          "internalType": "uint256",
          "name": "amount",
          "type": "uint256"
        }
      ],
      "name": "Withdrawl",
      "outputs": [],
      "stateMutability": "nonpayable",
      "type": "function"
    },
    {
      "inputs": [],
      "name": "getAccountBalance",
      "outputs": [
        {
          "internalType": "uint256",
          "name": "",
          "type": "uint256"
        }
      ],
      "stateMutability": "view",
      "type": "function"
    },
    {
      "inputs": [],
      "name": "owner",
      "outputs": [
        {
          "internalType": "address",
          "name": "",
          "type": "address"
        }
      ],
      "stateMutability": "view",
      "type": "function"
    }
  ],
  "bytecode": "0x608060405234801561001057600080fd5b50336000806101000a81548173ffffffffffffffffffffffffffffffffffffffff021916908373ffffffffffffffffffffffffffffffffffffffff1602179055506000600181905550610366806100686000396000f3fe608060405234801561001057600080fd5b506004361061004c5760003560e01c80634d6ce1e5146100515780636896fabf146100815780638da5cb5b1461009f578063e615c1a0146100bd575b600080fd5b61006b600480360381019061006691906101a7565b6100d9565b6040516100789190610209565b60405180910390f35b6100896100f5565b6040516100969190610209565b60405180910390f35b6100a76100ff565b6040516100b491906101ee565b60405180910390f35b6100d760048036038101906100d291906101a7565b610123565b005b6000816001546100e99190610224565b60018190559050919050565b6000600154905090565b60008054906101000a900473ffffffffffffffffffffffffffffffffffffffff1681565b60008054906101000a900473ffffffffffffffffffffffffffffffffffffffff1673ffffffffffffffffffffffffffffffffffffffff163373ffffffffffffffffffffffffffffffffffffffff161461017b57600080fd5b80600154610189919061027a565b60018190555050565b6000813590506101a181610319565b92915050565b6000602082840312156101b957600080fd5b60006101c784828501610192565b91505092915050565b6101d9816102ae565b82525050565b6101e8816102e0565b82525050565b600060208201905061020360008301846101d0565b92915050565b600060208201905061021e60008301846101df565b92915050565b600061022f826102e0565b915061023a836102e0565b9250827fffffffffffffffffffffffffffffffffffffffffffffffffffffffffffffffff0382111561026f5761026e6102ea565b5b828201905092915050565b6000610285826102e0565b9150610290836102e0565b9250828210156102a3576102a26102ea565b5b828203905092915050565b60006102b9826102c0565b9050919050565b600073ffffffffffffffffffffffffffffffffffffffff82169050919050565b6000819050919050565b7f4e487b7100000000000000000000000000000000000000000000000000000000600052601160045260246000fd5b610322816102e0565b811461032d57600080fd5b5056fea2646970667358221220d16f9d26b7939c1a403b77102f7d65726d5a18d64586cfc674c205b194b60bd864736f6c63430008000033",
  "linkReferences": {},
  "deployedLinkReferences": {}
}